S01100004C43445F5465726D6F2E73726563DA
S113000033C04DC04CC04BC04AC049C048C047C0B3
S11300101FC3ECC244C043C042C041C040C03FC043
S11300203EC03DC03CC06D6574726F6C6F672E6FCF
S113003072672E7561007DDC0623E2064CE8062318
S1130040E20665E50C23E2065CE0064CE80C65E597
S11300500C7DDC0C00000C040E15040404040404E0
S113006004040404150E040011241FBECFE5D4E0DB
S1130070DEBFCDBF10E0A0E6B0E0EEEFF8E002C0D6
S113008005900D92A236B107D9F720E0A2E6B0E0C0
S113009001C01D92A237B207E1F737D22EC4B0CF08
S11300A0CF93882331F08091620081608093620055
S11300B005C0809162008E7F80936200809162000F
S11300C08260809362006091620080E06AD362E0A3
S11300D080E0A2D300C064E080E0B2D3811102C00A
S11300E0C0E101C0C0E065E080E0AAD3811101C095
S11300F0C06266E080E0A4D3811101C0C06467E0FF
S113010080E09ED3811101C0C06862E080E087D3A3
S113011000C062E080E080D300C064E080E090D35F
S1130120811101C0C16065E080E08AD3811101C002
S1130130C26066E080E084D3811101C0C46067E0DE
S113014080E07ED3811101C0C86062E080E067D3A3
S11301508C2FCF91089580E0A3DF8823E4F388E017
S113016090E00197F1F780E09BDF089562E080E082
S113017053D300C062E080E052D30895CF93C82FD8
S1130180662331F08091620081608093620005C033
S1130190809162008E7F80936200809162008D7FE7
S11301A0809362006091620080E0FBD280916200E3
S11301B08F7780936200809162008F7B80936200CE
S11301C0809162008F7D80936200809162008F7EB7
S11301D080936200CC232CF4809162008068809329
S11301E06200C6FF05C08091620080648093620053
S11301F0C5FF05C080916200806280936200C4FFE5
S113020005C0809162008061809362006091620009
S113021080E0C7D2ABDF809162008F778093620069
S1130220809162008F7B80936200809162008F7D59
S113023080936200809162008F7E80936200C3FF8E
S113024005C080916200806880936200C2FF05C08F
S113025080916200806480936200C1FF05C0809138
S11302606200806280936200C0FF05C080916200DA
S11302708061809362006091620080E092D276DFB8
S1130280809162008061809362008091620080624C
S11302908093620080916200806480936200809108
S11302A062008068809362006091620080E079D28D
S11302B0CF910895CF93C82F4EDF60E08C2F5EDF7F
S11302C0CF910895611103C08058F4DF08958054DC
S11302D0F1DF089581E0EEDF0895882331F0809105
S11302E06200877F8093620005C08091620088600D
S11302F0809362006091620080E053D2089582E0AE
S1130300D9DF0895CF93C82F26DFCA3041F4803453
S113031010F080E001C080E48058CCDF0FC0803151
S113032021F460E080EC2ADF05C0803519F460E038
S113033080E824DF10DF61E08C2F20DFCF91089567
S11303400F931F93CF93DF93883080F48B01880F32
S1130350880F880F805CAEDFE801085F1F4F89912A
S1130360D1DFC017D107D9F780E001C081E0DF9168
S1130370CF911F910F910895CF93DF93EC012196B4
S1130380FC018491882331F0BDDFFE018491219624
S11303908111FACFDF91CF9108951F93CF93DF930B
S11303A0182FF7D1109262006091620080E0F9D1B9
S11303B080E09DE70197F1F780916200806280936D
S11303C062008091620080618093620060916200AB
S11303D080E0E7D1CBDE80E097E20197F1F7C6DE5B
S11303E0C0E8D0E0CE010197F1F7C0DECE0101975D
S11303F0F1F7809162008F7E8093620060916200C9
S113040080E0CFD1B3DE2197F1F788E253DF88E0B3
S113041051DF60DF86E04EDF812F4CDFDF91CF912B
S11304201F910895CF93DF93CDB7DEB728970FB60A
S1130430F894DEBF0FBECDBFFB01DE0111969E0115
S1130440275F3F4F94919D933196A217B307D1F73D
S1130450BE016F5F7F4F74DF28960FB6F894DEBF3E
S11304600FBECDBFDF91CF91089580916E008F5F55
S113047080936E0080916E008E3111F410926E00A4
S1130480089580916800813051F440E06BE086E388
S113049090E0F6D080916700811110926800089571
S11304A080916E0090916000981781F080916E00A9
S11304B080936000811109C080916C0090916D005F
S11304C0019690936D0080936C00DBDF089591E0BA
S11304D090936E0020916C0030916D00A901480F3B
S11304E0511D50936400409363002417350760F452
S11304F0D7DF209163003091640080916C0090916B
S11305006D0082179307A0F30895B89A88B318BAB8
S11305101092680010926D0010926C0064D0789470
S11305208CE03BDFECDE80E0D8DE86E290E024DF86
S11305306FE570E080E076DF67E570E081E072DF10
S113054061E080E0BFDE80E0DDDE81E0DBDE41E013
S11305506BE086E390E094D081E08093680010E043
S113056084E0B5DFB7DE103119F01A3030F401C081
S113057010E080E3810FC6DE03C087E3810FC2DE93
S113058082E0A5DFBCDEC0E38C2FBCDECF5FCA33C4
S1130590D9F7C1E48C2FB6DECF5FC734D9F761E059
S11305A080E090DEC12FC295C07FD0E1DC0F8C2F9C
S11305B0A9DECF5FDC13FBCF1F5FD2CF85E083BF03
S11305C012BE1FBC81E08EBD1DBC1CBC17BC16BC7A
S11305D01BBC1ABC19BC18BC12BC97E095BD14BC5A
S11305E013BC89BF0895A09AE9DF08951F920F9262
S11305F00FB60F9211242F933F934F935F936F93F2
S11306007F938F939F93AF93BF93EF93FF938091C7
S1130610690090916A00892B49F08091690090915A
S11306206A00019790936A00809369001EDFFF912E
S1130630EF91BF91AF919F918F917F916F915F9156
S11306404F913F912F910F900FBE0F901F901895CF
S11306501F920F920FB60F9211248F939F93809144
S11306606F00909170009DBD8CBD95B381E089278A
S113067085BB9F918F910F900FBE0F901F9018957F
S11306801F93CF93DF9300D01F92CDB7DEB7162F01
S11306904130E9F443E050E0BC01CE01019624D19D
S11306A089819A819093700080936F008B8190E090
S11306B090936A008093690089B7846089BF81E060
S11306C08093710080936500109267005BC0409135
S11306D0690050916A00452B09F054C06091710083
S11306E061110AC088B391E0892788BB90936700A1
S11306F089B78B7F89BF46C02091650031E0320FF6
S11307003093650020FF0BC01092700010926F00B0
S113071081E090E090936A008093690020C0262FC6
S113072030E0B901660F771F620F731F680F791FDE
S113073043E050E0CE010196D7D089819A8190930D
S1130740700080936F008B8190E0019790936A0012
S113075080936900809171008F5F80937100809114
S11307607100811710F01092710080916F009091C8
S11307707000892B21F089B7846089BF03C089B7D1
S11307808B7F89BF0F900F900F90DF91CF911F91B6
S113079008956ED08AE18A95F1F700C01092660040
S11307A00895CF9381110AC0C62F609366008EE42A
S11307B063D08C2F85D07ED080E001C08FEFCF91A5
S11307C00895CF93DF93811121C0683008F580919B
S11307D06600442349F0C1E0D0E002C0CC0FDD1F25
S11307E06A95E2F7C82B09C0C1E0D0E002C0CC0F83
S11307F0DD1F6A95E2F7C095C823C09366008EE4B6
S11308003BD08C2F5DD056D080E003C08FEF01C069
S11308108FEFDF91CF91089541E0D3DF089540E059
S1130820D0DF0895CF93811107C08FE425D055D030
S1130830C82FC0953FD001C0CFEF8C2FCF91089522
S1130840CF93811110C0683080F4C62FEBDF8F3F47
S113085069F0082E000C990B02C095958795CA95EE
S1130860E2F7817003C08FEF01C08FEFCF9108953D
S113087011B888E880B9089594EA96BF06B607FED1
S1130880FDCF91B1987F983011F0903179F483B90C
S113089084E886BF06B607FEFDCF91B1987F9831F4
S11308A039F081E0903429F480E0089581E00895DE
S11308B080E0089584E986BF06B604FCFDCF089560
S11308C083B984E886BF06B607FEFDCF91B1987F51
S11308D081E0983209F480E0089584E886BF06B682
S11308E007FEFDCF83B10895FB01DC0102C0059032
S11108F00D9241505040D8F70895F894FFCF70
S10508FEFF00F5
S9030000FC
